:020000040800F2
:10000000D021002069020008674C0008B13D0008BB
:10001000654C0008B5060008617200080000000089
:100020000000000000000000000000008D540008E7
:100030008917000800000000E34D0008755B000808
:10004000830200088302000883020008830200087C
:10005000830200088302000883020008830200086C
:10006000830200088302000883020008830200085C
:10007000830200088302000883020008830200084C
:10008000830200088302000883020008830200083C
:10009000830200088302000883020008830200082C
:1000A000830200088302000883020008830200081C
:1000B000830200088302000883020008830200080C
:1000C00083020008830200088302000883020008FC
:1000D000830200082D5D00088302000883020008E7
:1000E00083020008830200088302000883020008DC
:1000F00083020008830200088302000883020008CC
:1001000083020008830200088302000883020008BB
:1001100083020008830200088302000883020008AB
:10012000830200088302000883020008830200089B
:10013000830200088302000883020008830200088B
:10014000830200088302000883020008694C00084B
:10015000830200088302000883020008830200086B
:10016000830200088302000883020008830200085B
:1001700083020008830200088302000800000000D8
:10018000830200088302000800F002F800F05CF827
:100190000AA090E8000C82448344AAF10107DA45E2
:1001A00001D100F051F8AFF2090EBAE80F0013F0D8
:1001B000010F18BFFB1A43F001031847108100001C
:1001C000308100000A444FF0000C10F8013B13F09E
:1001D000070408BF10F8014B1D1108BF10F8015BA0
:1001E000641E05D010F8016B641E01F8016BF9D193
:1001F00013F0080F1EBF10F8014BAD1C0C1B09D1EA
:100200006D1E58BF01F801CBFAD505E014F8016B5B
:1002100001F8016B6D1EF9D59142D6D370470000ED
:100220000023002400250026103A28BF78C1FBD8FF
:10023000520728BF30C148BF0B6070471FB508F098
:100240001DF81FBD10B510BD00F065F91146FFF790
:10025000F5FF07F03BFE00F083F903B4FFF7F2FF70
:1002600003BC00F08BF900000948804709480047AB
:10027000FEE7FEE7FEE7FEE7FEE7FEE7FEE7FEE756
:10028000FEE7FEE704480549054A064B70470000B3
:10029000115C000889010008D0150020D021002041
:1002A000D01D0020D01D002053EA020C00F0698010
:1002B0002DE9F04B4FF00006002B1FBFB3FA83F57A
:1002C00003FA05F424FA05F65E4012BF1643B2FAAB
:1002D00082F502FA05F4C5F120051EBF22FA05FCDD
:1002E00044EA0C04203556EA044C4FEA144418BF83
:1002F000641C4FF000084FF00009904271EB030CB2
:1003000039D3002919BFB1FA81F701FA07F6B0FA1B
:1003100080F700FA07F6C7F120071EBF20FA07FC96
:1003200046EA0C062037B6FBF4FCA7EB0507103FA6
:1003300007F01F0BCBF120060CFA0BFB2CFA06F68C
:1003400044BFB3460026202FA4BF5E464FF0000BEB
:100350005BEA060C08BF4FF0010B19EB0B09ABFB76
:10036000027C48EB0608C01B06FB02CC0BFB03CC4F
:1003700071EB0C01C1E70B46024641464846BDE819
:10038000F08B13B54FF000004FF00001AFF3008089
:10039000BDE81C40704710B5431C02E010F8011B7B
:1003A00071B18107FAD14FF0013202C88C1A8C4327
:1003B00014EAC211F9D0C01A0A0603D0C01E10BD3B
:1003C000C01A10BD0A0401D0801E10BD0902FCD065
:1003D000401E10BD032A40F2308010F0030C00F0E4
:1003E000158011F8013BBCF1020F624498BF11F86F
:1003F00001CB00F8013B38BF11F8013BA2F1040228
:1004000098BF00F801CB38BF00F8013B11F003039F
:1004100000F04F80083AC0F0088051F8043B083AD9
:1004200051F804CBA0E80810F5E7121D5CBF51F8A5
:10043000043B40F8043BAFF30080D20724BF11F81F
:10044000013B11F801CB48BF11F8012B24BF00F884
:10045000013B00F801CB48BF00F8012B70474FF07B
:10046000000200B5134694469646203922BFA0E804
:100470000C50A0E80C50B1F12001BFF4F7AF090710
:1004800028BFA0E80C5048BF0CC05DF804EB890001
:1004900028BF40F8042B08BF704748BF20F8022B44
:1004A00011F0804F18BF00F8012B7047704770475C
:1004B000704710B5203AC0F00B80B1E81850203AD0
:1004C000A0E81850B1E81850A0E81850BFF4F5AFF4
:1004D0005FEA027C24BFB1E81850A0E8185044BF7E
:1004E00018C918C0BDE810405FEA827C24BF51F8EB
:1004F000043B40F8043B08BF7047D20728BF31F8DF
:10050000023B48BF11F8012B28BF20F8023B48BF2F
:1005100000F8012B7047754600F02CF8AE46050038
:100520006946534620F00700854618B020B5FFF70E
:10053000A9FEBDE820404FF000064FF000074FF045
:1005400000084FF0000B21F00701AC46ACE8C009F1
:10055000ACE8C009ACE8C009ACE8C0098D467047FA
:1005600010B50446AFF300802046BDE81040FFF709
:1005700074BE0000004870476C1500200149182027
:10058000ABBEFEE72600020070470000464910B5EA
:100590004A6822F440324A604A6843681A434A6013
:1005A00001684A6822F480724A6001684A680369F7
:1005B00042EA03224A6001684A6822F040724A60B7
:1005C00001684A6883681A434A6001688A6822F4AD
:1005D00000628A6001688A68C3681A438A60816A17
:1005E0006FF07062D14201688A6822F070628A609E
:1005F00001688A680CD0836A1A438A6001688A6835
:1006000022F040528A6001688A68C36A1A4301E096
:1006100022F040528A6001688A6822F002028A60F1
:1006200001688A68037E42EA43028A6090F82010DB
:10063000002901684A680FD042F400624A600168EC
:100640004A6822F460424A6001684A68174C436A6B
:1006500004EB43331A4301E022F400624A6001686C
:10066000CA6A22F47002CA620168CA6A838B104C9B
:1006700004EB03531A43CA6201688A6822F40072C9
:100680008A6001688A6890F8303042EA43228A60C2
:1006900001688A6822F480628A6001688A68406919
:1006A00042EA8020886010BD0023014000E0FFFF87
:1006B0000000F0FFFEE72DE9F04102787F2A03D029
:1006C000BDE8F04100F012BB01F8012B457801F8BC
:1006D000015B861C0C464FF0021708E021463046AD
:1006E00000F004FB074406EB104614FA80F46D1E7C
:1006F000F4D23846BDE8F08170B500240B4621469F
:1007000009283ED006DC052850D2DFE800F04F145F
:10071000171D320001224025FC2847D004DCF028B8
:1007200032D0F12842D133E0FD283FD0FE283BD023
:10073000FF283BD134E018461DA101E0184620A156
:1007400007F0AEFC044631E0224D234A00202C5C29
:1007500002EB141604F00F04367803F8106003EB74
:100760004006145D401C74700C28F0D319761924CF
:100770001CE0194906242246891F1846FFF72AFE65
:1007800014E0184615A1DBE7332018705A7009E011
:100790001D70422058700F209870D970042405E015
:1007A0001D705970022401E01A700124204670BDAA
:1007B000524220546563686E6F6C6F677900000069
:1007C00052424C696E6B20434D5349532D44415066
:1007D00000000000107AFF1FA3820008332E302E85
:1007E000300000002DE9F04F87B00446059000204E
:1007F000CDE9011001F10209E5490870E54914F855
:10080000012B8246CA76897E07468A427ED214F838
:10081000016B002E7AD000BF14F8015BE90701D00C
:100820000B2100E00A218B46A90770D5F7B3D94800
:10083000DA45B0F810800FD1E8060DD46946284695
:1008400003F006FF022816D1B8F1010803D3D049FE
:1008500009780029F2D048E1BAF10A0F03D00A2042
:10086000824603F035FDCA4F69460E2003F0F0FEC4
:10087000022803D000270128EDD107E0B8F10108D4
:1008800002D339780029EFD000272EE1009989F8AA
:100890000010009A09F10101120A01F8012B009AD7
:1008A000120C01F8012B009A120E00E015E001F87D
:1008B000012B89468FB129060FD5B64909F10102EE
:1008C000896889F800100B0A02F8013B0B0C02F84A
:1008D000013B090E02F8011B9146E9065AD5A178A1
:1008E00034F8030BDFF8AC8261F31F4014F8011BEE
:1008F000DA4540EA01600490B8F8120003905846C7
:1009000002D0DA4603F0E4FCC34601E011E174E0F2
:10091000B8F810800021284603F09AFE022802D081
:10092000012898D107E0B8F1010803D39849097864
:100930000029EFD0D9E0BBF810806946284603F0C3
:1009400087FE022802D0012818D107E0B8F101087B
:1009500014D38F4909780029EFD00FE0DBF8141089
:10096000009A1140049A914208D00399491E0391BC
:10097000491C03D0864909780029DCD0DBF8141023
:10098000009A1140049A914201D040F010000128D1
:100990001ED1A0E0002F2FD15946DA4503D00846DA
:1009A0008A4603F095FC7B48DFF8E4B1B0F810808C
:1009B0000021284603F04CFE022802D0012807D16E
:1009C00007E0B8F1010803D39BF800100029EFD02D
:1009D0008BE029060FD56F498A6809F1010189F872
:1009E0000020130A01F8013B130C01F8013B120E21
:1009F00001F8012B894601276DE06FB3BAF10A0FA8
:100A000003D00A20824603F063FC6248B0F81080ED
:100A100069460E2003F01CFE022802D0012864D192
:100A200007E0B8F1010860D3594909780029EFD0EF
:100A30005BE0009989F80010009909F10100090AAA
:100A400000F8011B0099090C00F8011B0099090E20
:100A500000F8011B81460027A17834F8030B61F3ED
:100A60001F4014F8011B40EA01600090A90603D55D
:100A70004849486101202EE05946DA4503D008462E
:100A80008A4603F025FC4348DFF804B1B0F8108033
:100A90006946284603F0DCFD022802D0012824D153
:100AA00007E0B8F1010820D39BF800100029EFD02F
:100AB0001BE029060FD5374909F10102896889F839
:100AC00000100B0A02F8013B0B0C02F8013B090E67
:100AD00002F8011B91460299491C02912C490978A0
:100AE00019B9761E7FF498AE09E046B114F8011BDF
:100AF0008A0701D5C90600D5241D761EF5E7012811
:100B000036D1BAF10A0F02D00A2003F0E1FB2148E6
:100B10001F4E058A0FB369460E2003F099FD022887
:100B200002D0012824D105E06D1E21D3317800299F
:100B3000F1D01DE0009989F80010009A09F1010137
:100B4000120A01F8012B009A120C01F8012B009AED
:100B5000120E01F8012B89460AE000210E2003F055
:100B600077FD022804D16D1E02D331780029F4D01C
:100B7000DDE901120A70019948700199A9EB0100A1
:100B8000059907B0611A40EA0140BDE8F08F000006
:100B900058010020281500202DE9F84FDFF8448186
:100BA0000027044638460D4601F1030A88F8007014
:100BB0004D4914F8012BCA76897E8A4222D234F834
:100BC000026B002E1ED014F8019B5FEAC97001D0A1
:100BD0000B2000E00A20834603F07AFB5FEA89706D
:100BE00061D54148048A0021484603F031FD0228BE
:100BF00002D001286DD134E0641E6AD398F8001049
:100C00000029F0D065E03EB9BBF10A0F02D00A20FE
:100C100003F05EFB4FF00E093348048A69464846EC
:100C200003F016FD022802D0012852D106E0641E0E
:100C30004FD398F800100029F0D04AE000998AF8C4
:100C40000010009A0AF10101120A01F8012B009A22
:100C5000120C01F8012B009A120E01F8012B8A46A2
:100C60007F1C761ECFD234E0A17834F8030B61F3F9
:100C70001F4014F8011B40EA016000901A48B0F8C8
:100C800010806946484603F0E3FC022802D00128A0
:100C90001FD107E0B8F101081BD3124909780029D8
:100CA000EFD016E07F1C761EDED2BBF10A0F02D019
:100CB0000A2003F00DFB0C480A4E048A00210E2086
:100CC00003F0C6FC022804D1641E02D33178002947
:100CD000F4D02F70390A6970A870AAEB0500BDE83E
:100CE000F88F000058010020281500202DE9F05F42
:100CF0000278A2F180031F2B03D800F06BF9BDE846
:100D0000F09F01F8012B0C4610F801CB0027FF21C2
:100D1000A94D0223DFF8A492A94A4FF0010A4FF42B
:100D2000806B4FF001164FF4807EBCF11E0F77D21E
:100D3000DFE80CF00F172A3EE8F6F476F34C557610
:100D400076767676595D697785AACE7676767676EA
:100D500076810078611CFFF7CFFC207000F1021053
:100D6000CDE7027812B1012A0CD105E0407800F0FD
:100D7000010004F00DF92FE0407800F0010004F0CC
:100D8000FDF829E0217028E0057835B1012D05D066
:100D9000022D06D000252570B2E0012582F800A0C2
:100DA00000E01370C9F818B0012004F0D3F8F2E79E
:100DB0001770002004F0CEF84FF08061C9F81810C9
:100DC00080488910816127705046EDE00088C0EBB3
:100DD000C000C000401EFDD127702846E4E06770C7
:100DE00027701846E0E0214600F0C2FBDCE0837883
:100DF0000288C07863F31F42734D52EA0060C1D08D
:100E000004F09CFEE8E710F8015B014605B9754661
:100E1000284604F069FEED1DE8082770000454E040
:100E2000C5E0007800F00301491C1176C0F3800092
:100E30005076277064E0214600F0E4F8B4E004F84E
:100E4000017B0125A0462F4610F8016B17E000BF7B
:100E500010F8019B824619F03F0000D14020C01DD0
:100E6000C40842465146484603F0A6FB25446D1C83
:100E70000AEB04005FEA096101D5A0442744761E0D
:100E8000E6D247EA05408FE010F8013B0021937657
:100E90000D460BE002EB050C10F8016B8CF81C60A2
:100EA00002EB450C6D1CACF8241031449D42F1D38B
:100EB000002006E015182D7F491B02EB4005401C61
:100EC000A9869842F6D32770180400F101106BE050
:100ED0001378022B13D10078D076927E90420ED2F6
:100EE0000E2003F0F5F903F0F9FA27706070010A9B
:100EF000A170010CE170000E2071344854E02170A3
:100F0000304651E001781173B0F801101182B0F849
:100F10000300508227702E4846E042E01FE0FFE7C2
:100F200012782146012A14D0022A15D0421C12F848
:100F3000013B43B112F8014BA50701D5E40600D5EA
:100F4000121D5B1EF6D1101A0F7000044F70801C2A
:100F50002AE000F093F827E0FFF744FC24E0054680
:100F60001078214601280BD002280DD00F704F7049
:100F7000A7700321E87880070BD541F4802013E0A7
:100F8000284600F05DFA02E02846FFF705FE01461C
:100F9000F0E7B5F801004FF4802202EB80400843EF
:100FA00002E0214600F0BAFB00F10110A7E604F8C8
:100FB000011C3046A3E600000100020000100240C0
:100FC00028150020000C024001000400050001006B
:100FD000010005000346007885280CD086280AD039
:100FE000872808D08E2806D08F2804D00870FF20CC
:100FF0004870034870470A46591C06F005BF0000B8
:10100000020001002DE9F05F002201F8012B01250B
:1010100010F8016B8A46A9460446DFF85CB025E06B
:1010200014F8017B17F03F0000D14020C01D4FEAAB
:10103000D008380604D54FF08061CBF8181003E0D3
:101040004FF48060CBF8180052462146384604F031
:1010500023FA1EB94FF48060CBF81800380602D589
:10106000C244C14401E0444445446D1C761ED7D2BD
:1010700049EA0540BDE8F09F001002402DE9F04F1D
:1010800087B08B4601F1020804460590EA4900202A
:101090000290087001906678A41C8146002E75D0DD
:1010A000DFF898A314F8015BA90770D5B9F1000F18
:1010B00050D0BAF8107005F0110001280AD0DFF8FE
:1010C000789369460E2004F03FFA022812D04FF0C0
:1010D000000905E06946284604F036FA022802D0E5
:1010E000012806D10FE07F1E03D3D34909780029D8
:1010F000F0D04FE17F1E03D399F800100029E0D013
:101100004FF0000946E1009988F80010009A08F1B4
:101110000101120A01F8012B009A120C01F8012BAF
:10112000009A120E01F8012B8846B9F1000F11D078
:1011300029060FD5DAF8082008F1010188F8002007
:10114000130A01F8013B130C01F8013B120E01F8E0
:10115000012B8846E90651D5A17834F8030B61F3D9
:101160001F4014F8011B40EA01600490BAF8120015
:101170000390E80714D0BAF810700021284604F054
:10118000E3F9022804D00128B3D109E022E197E075
:101190007F1E791CADD0A84909780029EDD0F9E06F
:1011A000BAF810706946284604F0CEF9022802D039
:1011B000012817D106E07F1E14D39F490978002922
:1011C000F0D00FE0DAF81410009A1140049A91421E
:1011D00008D00399491E0391491C03D09649097808
:1011E0000029DDD0DAF81410009A1140049A9142D7
:1011F00001D040F01000012816D15FE0BAF810705D
:10120000E90727D0B9F1000F58D10021284604F092
:101210009BF9022802D0012806D106E07F1E03D3E5
:10122000854909780029F0D0B4E029060FD5DAF80D
:10123000082008F1010188F80020130A01F8013B99
:10124000130C01F8013B120E01F8012B88464FF0F8
:10125000010933E06946284604F076F9022802D0F5
:10126000012806D106E07F1E03D3734909780029BF
:10127000F0D08FE029060FD5DAF8082008F1010137
:1012800088F80020130A01F8013B130C01F8013B18
:10129000120E01F8012B8846009988F80010009A78
:1012A00008F10101120A01F8012B009A120C01F851
:1012B000012B009A120E01F8012B884600215EE0F6
:1012C000B9F1000F25D0BAF8107069460E2004F06D
:1012D0003BF9022802D001285CD106E07F1E59D3D9
:1012E000554909780029F0D054E0009888F80000AA
:1012F000009908F10100090A00F8011B00994FF05C
:101300000009090C00F8011B0099090E00F8011BE7
:101310008046A17834F8030B61F31F4014F8011BD9
:1013200040EA01600090A90603D5CAF81400012024
:1013300026E0BAF810706946284604F005F902283C
:1013400002D0012826D107E07F1E791C22D03A491D
:1013500009780029EFD01DE029060FD5DAF808201A
:1013600008F1010188F80020130A01F8013B130C71
:1013700001F8013B120E01F8012B88460121019171
:101380000299491C02912C49097819B9761E7FF4FB
:1013900089AE09E046B114F8011B8A0701D5C906D8
:1013A00000D5241D761EF5E7012837D1B9F1000FCD
:1013B00024D0BAF81050204E69460E2004F0C4F82C
:1013C000022802D0012829D105E06D1E26D33178EC
:1013D0000029F1D022E0009988F80010009A08F165
:1013E0000101120A01F8012B009A120C01F8012BDD
:1013F000009A120E01F8012B88460FE0019969B19D
:10140000BAF810500C4E00210E2004F09DF802286E
:1014100004D16D1E02D331780029F4D002998BF8E3
:1014200000108BF801000598A8EB0B01201A07B0FB
:1014300041EA0040BDE8F08F580100202815002047
:101440002DE9F84FDFF820810027044638460D4685
:1014500001F1030A88F80070B4F80160E41C002E62
:1014600079D014F8019BDFF804B15FEA897160D587
:101470005FEAC9713CD0BBF810400021484604F037
:1014800063F8022802D0012865D131E0641E62D3DE
:1014900098F800100029F0D05DE026B95FEAC97025
:1014A00001D04FF00E09BBF810406946484604F0E1
:1014B0004BF8022802D001284DD106E0641E4AD321
:1014C00098F800100029F0D045E000998AF8001043
:1014D000009A0AF10101120A01F8012B009A120C7C
:1014E00001F8012B009A120E01F8012B8A467F1C8D
:1014F000761ED2D22FE0A17834F8030B61F31F409F
:1015000014F8011B40EA01600090BBF810806946A6
:10151000484604F019F8022802D001281BD107E040
:10152000B8F1010817D3104909780029EFD012E06B
:101530007F1C761E701CDED1BBF810400A4E0021C5
:101540000E2004F001F8022805D1641E611C02D0AF
:1015500031780029F3D02F70390A6970A870AAEB8E
:101560000500BDE8F88F0000580100202815002074
:10157000F0B50378427805794488407965F31F44D3
:1015800044EA00644E48D50704D0DE074FF40065F6
:1015900010D08561950705D59E074FF4005500D4FE
:1015A0002D04856155070BD59D084FF4804604D066
:1015B000866105E04FF00065EBE74FF080458561FF
:1015C000950608D55D094FF4004601D0866102E01A
:1015D0004FF000458561150607D5DD094FF480768B
:1015E00002D03504856100E08661354D1035281D37
:1015F000F4B3344EB44200D93446334F7E684FF0D2
:10160000A80CB6FBFCF600BF5FEAC27E05D0D0F89E
:1016100000E0CEF3C02E9E4529D15FEA827E06D53A
:10162000D5F800E0CEF3003EBEEB530F1FD15FEACA
:10163000427E06D5D0F800E0CEF3803EBEEB930F9D
:1016400015D15FEA826E06D5D0F800E0CEF3C03E39
:10165000BEEB531F0BD15FEA026E12D5D0F800E04B
:101660004EF3002E0EF1010EBEEBD31F09D000E0A9
:1016700007E0D7F804E0BEFBFCFEAEEB060EA64585
:10168000C2D302682B68C2F3C022C3F3003342EA1C
:1016900043030268C2F3803243EA82032A68C2F33A
:1016A000802243EAC20302680068C2F3C03243EA00
:1016B00042120012401C42EAC01008700348F0BDFC
:1016C000000C0240C0C62D00001000E00100060022
:1016D00010B50E4800246421047004730182448212
:1016E00001214461017644768476094804F026FAA3
:1016F00003F078FB0748016841F0807101600648FB
:101700004460016841F00101016010BD281500200E
:10171000404B4C00FCED00E0001000E0F8B5044642
:10172000174800260D460278012A03D0FF21022A1D
:1017300013D10DE0E178B4F8010061F31F40217985
:1017400040EA016000906946002003F0FDFE13E0CE
:101750002278C276807E824201D329700DE0082073
:1017600002F0B6FDE178B4F8010061F31F40217981
:1017700040EA016003F0A6F92E700248F8BD0000AF
:1017800028150020010005007047000078B50024EE
:10179000009490F83C20012A19D0012280F83C20C6
:1017A0000A6807230568092A13D9EE680A3A02EB8A
:1017B000420293409E43EE600B788A680A3B03EB3B
:1017C00043039A400368DD682A43DA6010E0022090
:1017D00078BD2E6902EB420293409E432E610B7846
:1017E0008A6803EB43039A4003681D692A431A6120
:1017F0004A681F23072A13D205686E6B521E02EB3C
:10180000820293409E436E630B790A885B1E92B2FC
:1018100003EB83039A4003685D6B2A435A6327E016
:1018200005680D2A12D22E6BD21F02EB8202934062
:101830009E432E630B790A88DB1F92B203EB83036E
:101840009A4003681D6B2A431A6311E0EE6A0D3A51
:1018500002EB820293409E43EE620B790A880D3BB5
:1018600092B203EB83039A400368DD6A2A43DA628B
:10187000164B0568144A9D4206D10D68122D03D1FE
:10188000556845F48005556005689D4218D10B6880
:10189000102B01D0112B13D1536843F40003536074
:1018A000096810290CD10A490A4A0968B1FBF2F10A
:1018B00001EB8101490000E0491E00910029FBD1A4
:1018C00080F83C40002078BD00230140002001400A
:1018D0006801002040420F000068C06C704770B57E
:1018E00004004FF0000503D0206C002610B107E083
:1018F000012070BD204600F01CF8666484F83C604E
:10190000206CC00610D4206C20F4885040F00200F7
:1019100020642046FEF73AFE6664206C20F0020048
:1019200040F00100206400E0012584F83C60284676
:1019300070BD70472DE9F041044600680D4681688E
:101940004FF0000749050BD58068C00508D5206C0D
:1019500040F02000206484F83C700120BDE8F08154
:1019600000F0C6FC064613E0681C11D025B100F05B
:10197000BFFC801BA8420BD920680068800707D4F1
:10198000206C40F00400206484F83C700320E5E7FC
:10199000206800688007E7D521686FF012000860B2
:1019A000206C40F4007020642068816811F0405F72
:1019B00013D1217E89B9C16A11F4700F02D08068F9
:1019C00040050AD4206C20F480702064206CC00490
:1019D00003D4206C40F0010020640020BEE700002A
:1019E00018B50021009190F83C20012A07D001226F
:1019F00080F83C2002689368DB0702D011E00220E7
:101A000018BD936843F0010393602E4A2E4B126871
:101A1000B2FBF3F202EB420200E0521E0092002AF7
:101A2000FBD102689368DB0742D0036C40F201648B
:101A3000A34343F48073036453685B0505D5036CCB
:101A400023F4005343F480530364036CDB0404D594
:101A5000436C23F00603436400E0416480F83C10CB
:101A60001A496FF02203136049680068CA061849D2
:101A700006D0884224D1816811F0405F13D01FE066
:101A80008842F8D0134A904203D1D1F80423D206F9
:101A9000F1D0114A904213D1D1F8041301F01F0183
:101AA0001029E8D30CE0816841F08041816007E0B3
:101AB000016C41F010010164416C41F0010141648D
:101AC000002018BD6801002040420F0000230140A3
:101AD000002001400021014000220140F0B590F8B3
:101AE00020500468A468012D05D0022D03D0416A5E
:101AF00041F4802157E014F0406F01D1E5004FD54B
:101B0000C4F301640125A5401D608D684FF4C073C6
:101B10009DB1CE6835434E6845EAC605066803EBBD
:101B20000417F5514FF4C275076805EB04150E69EB
:101B30007E51097D012905D009E00E88CD6845EA6E
:101B40004655EBE701684E5946F480764E511179BF
:101B5000D579567941EA056195792D0445EA06253E
:101B600029434FF4C676056806EB0416A95111788F
:101B7000D57841EA0561957852782D0445EA02222C
:101B800011434FF4C475026805EB04155151006808
:101B900003EB0411425842F0010242500020F0BD14
:101BA000416A41F4001141620120F0BD10B590F886
:101BB0002020012A07D0022A05D0416A41F4802161
:101BC0004162012010BD3B48D0F8002242F00102E2
:101BD000C0F80022D0F8002222F47C52C0F8002283
:101BE000D0F800224B6A42EA0322C0F800220A7DA4
:101BF00002F01F0301229A40D0F81C329343C0F830
:101C00001C32CB69B3B9D0F80C329343C0F80C3214
:101C10008C894B6864F31F434C6900EBC404C4F81F
:101C200040320C890B6864F31F434C6900EBC40419
:101C3000C4F84432CB69012B16D1D0F80C321343CF
:101C4000C0F80C320C884B6864F31F434C6900EBFE
:101C5000C404C4F840320C89CB6864F31F434C6958
:101C600000EBC404C4F844328B69002BD0F8043272
:101C70000ED01343C0F804320B69002BD0F8143295
:101C800008D01343C0F81432096A012904D008E0CF
:101C90009343EFE79343F5E7D0F81C121143C0F8E4
:101CA0001C12D0F8001221F00101C0F8001200202F
:101CB00010BD00000064004010B504000ED000F01C
:101CC00055F9204600F024F92068016841F40041EC
:101CD00001600020606284F8200010BD012010BD6A
:101CE0000246002092F82030012B01D0022B05D1B2
:101CF000106821B1D0F8100000F003007047C068F0
:101D0000FAE770B590F82040012C05D0022C03D0E2
:101D1000416A41F4802128E0046809B32469A407DA
:101D200020D04FF4D874056804EB01142D5915F038
:101D30000405956005682D591AD0ED0855600568B1
:101D40002C5904F00204D4604FF4DA74056804EBF3
:101D500001142E5906F00F06082E0CD308250DE0AD
:101D6000E468DCE7416A41F400114162012070BD82
:101D70006D0D1560E3E72D5905F00F051561056838
:101D80002D59C5F30725956105682C59240C54611C
:101D90004FF4DC72046802EB0112A4581C70046852
:101DA000A458240A5C700468A458240C9C7004682D
:101DB000A258120EDA704FF4DE72046802EB0112C0
:101DC000A4581C710468A458240A5C710468A458BF
:101DD000240C9C710468A258120EDA71006829B1B3
:101DE000016941F020010161002070BDC16841F02E
:101DF0002001C160F8E770B5040003D094F820001A
:101E000010B104E0012070BD204600F082F8206887
:101E1000016841F00101016000F06AFA05460526FB
:101E200004E000F065FA401B0A2811D820684068D9
:101E3000C007F6D02068016821F00201016000F0BF
:101E400057FA05460BE000F053FA401B0A2806D962
:101E5000606A40F40030606284F82060D2E7206855
:101E600040688007EFD4207E0128206801683DD0BB
:101E700021F080010160607E01282068016838D06F
:101E800021F040010160A07E01282068016833D064
:101E900021F020010160E07E0128206801682ED039
:101EA00041F010010160207F01282068016829D0DD
:101EB00021F008010160607F01282068016824D0BA
:101EC00021F004010160D4E902010843D4E90412BD
:101ED000114308436168491E08432168C861002016
:101EE0006062012084F82000002070BD41F0800174
:101EF000C0E741F04001C5E741F02001CAE721F009
:101F00001001CFE741F00801D4E741F00401D9E71F
:101F10007047704770B5044690F82000012804D03F
:101F2000606A40F40020606218E0022084F820001B
:101F30002068016821F00101016000F0D9F905462F
:101F40000EE000BF00F0D4F9401B0A2808D9606AEF
:101F500040F400306062052084F82000012070BD4C
:101F600020684068C007EDD1606270BD70B504465E
:101F700090F82000022804D0606A40F4801060626B
:101F800014E02068016841F00101016000F0B0F93F
:101F900005460DE000F0ACF9401B0A2808D9606A3C
:101FA00040F400306062052084F82000012070BDFC
:101FB00020684068C007EDD02068016821F0020168
:101FC0000160012084F82000002070BD70B500B3CE
:101FD000F9B14379012B1ED001264671022303710A
:101FE00005682C6802F0100340F6FE729A40944394
:101FF000D1E900210A439A4022432A6001680A6815
:10200000C0249C40A2430A60067100214171084629
:1020100070BD012070BD022070BD70B5040003D0FA
:102020002079002510B105E0012070BD65712046C2
:1020300000F007F8022020712561012020710020A6
:1020400070BD704718B50024009440B1006800903E
:10205000104431B1143000900360002018BD0120FD
:1020600018BD0830F7E770B508B34279012A20D0CF
:1020700001224271022303710468266801F01003F3
:1020800002FA03F52E4326600029016813D00C687C
:1020900004F470153C249C40A54203D14B6843F0E6
:1020A00002034B60027100214171084670BD01209E
:1020B00070BD022070BD0B68C3F383030F2BF1D1F9
:1020C0004B6843F00103ECE770B5044600F010F9EB
:1020D0000546601C02D004480078044400F008F96A
:1020E000401BA042FAD370BD5C0100202DE9F84FDF
:1020F000DFF8BCA10022012503264FF00F090AF1E9
:10210000040BAAF1040E00BF0B6805FA02F4234089
:10211000A34270D10F7907F00307012F01D0022FDE
:1021200016D187684FEA420806FA08FC27EA0C072E
:10213000D1F80CC00CFA08FC4CEA070CC0F808C037
:102140004768A7430C79C4F3001494403C434460AF
:102150000C79E443A4070AD0C4684FEA420C06FA9B
:102160000CF7BC438F6807FA0CF72743C7600C795C
:1021700004F00304022C12D1D40800EB840CDCF828
:1021800020405707FF0E09FA07F824EA0804D1F89F
:10219000108008FA07F848EA0408CCF820800468A0
:1021A0004FEA420C06FA0CF7BC430F7907F003071D
:1021B00007FA0CF7274307604C6814F4403F70D0CF
:1021C0003C4C276847F480472760246822F00307C7
:1021D00004F480440094384C07EB040CDCF8084805
:1021E00097074FEA177809FA08F7BC43334FB8420C
:1021F00002D1002724E054E0314FB84201D1012739
:102200001EE0304FB84201D1022719E02E4FB842EC
:1022100001D1032714E02D4FB84201D104270FE06C
:102220002B4FB84201D105270AE02A4FB84201D10D
:10223000062705E0284FB84201D1072700E008270C
:1022400007FA08F72743CCF80878DAF80040574631
:10225000D1F804C09C435FEACC2C00D51C433C6001
:10226000DBF800405F46D1F804C09C435FEA8C2C49
:1022700000D51C433C60DEF800407746D1F804C02E
:102280009C435FEA8C3C00D51C433C60084F083FF0
:102290003C68D1F804C09C435FEACC3C00D51C43A9
:1022A0003C60521C102AFFF42FAFBDE8F88F0000ED
:1022B000083C014044380240003001400000024028
:1022C0000004024000080240000C024000100240DE
:1022D0000014024000180240001C0240006908403F
:1022E00000D0012070470AB1816170470904FBE703
:1022F00001488068704700005C01002010B50400B0
:1023000013D0242084F83D002068016821F00101E9
:102310000160204600F062FB0020206484F83D004C
:1023200044F8300FA073207310BD012010BD006C65
:102330007047000070B5040025D094F83D000025DA
:1023400020B984F83C50204600F049FB242084F852
:102350003D002068016821F00101016020680168EA
:1023600041F4004101602068016821F400410160EE
:1023700001F060F94D4A6168914201D84C4900E092
:102380004C49884201D2012070BD4B492368B0FB03
:10239000F1F15E6826F03F060E435E60636893428B
:1023A00006D94FF4967359434FF47A73B1FBF3F1A6
:1023B0002368491C1E6A26F03F0631431962616892
:1023C000914210D84900401EB0FBF1F2521CC2F3FA
:1023D0000B02042A01D2042022E0B0FBF1F0401CE1
:1023E000C0F30B001CE0A268F2B301EBC10303EBE6
:1023F0000116431EB3FBF6F35B1C43F480431B053D
:1024000049D092B301EBC10202EB0111401EB0FBB7
:10241000F1F0401CC0F30B0040F4804040F4004059
:102420002168CA694CF6FF739A431043C861D4E926
:10243000071001432068026822F0C00211430160C6
:10244000D4E9030101432068826848F2FF339A43CC
:1024500011438160D4E9050108432168CA6822F06C
:10246000FF021043C86001E00EE016E0206801683A
:1024700041F0010101602564202084F83D002563BE
:1024800084F83E50002070BD01EB4106431EB3FBB3
:10249000F6F35B1CB3E70120C2E701EB4101401EEC
:1024A000B0FBF1F0401CC0F30B00B7E7A0860100C1
:1024B00080841E0000093D0040420F002DE9F84FC6
:1024C0001F4690468A460446DDF82890FFF710FF25
:1024D000054694F83D00202871D119230122704946
:1024E0002046009501F0EAFD0028F5D194F83C0063
:1024F000012864D0012084F83C0020680168C907E5
:1025000003D1016841F0010101602068016821F4F4
:1025100000610160222084F83D00102084F83E0014
:1025200000262664C4F824806785608D20855D4878
:10253000E0622B464A465146204601F051FC0028F5
:1025400076D1208D584F68B1012814D00228206818
:10255000016816D041F4806101602068416980699A
:1025600000908EE02068416981690091016841F422
:102570000071016085E02068016821F480610160DC
:10258000F0E721F4806101602068016841F4006196
:10259000E2E7032846D801280AD0022810D04B468B
:1025A000002239462046009501F088FDC8BB25E091
:1025B0002A464946204601F027FE90BB54E06CE0D5
:1025C0004B46002239462046009501F077FD40BB7E
:1025D0002068016841F40071016020680069616A47
:1025E0000870606A401C6062218D491E2185618DE2
:1025F000491E618521680969017039E02068016818
:1026000021F48061016020680069616A0870606A75
:10261000401C6062208D401E2085608D401E6085BC
:10262000CEE705E02A464946204601F0EDFD10B10F
:102630000120BDE8F88F20680069616A0870606A4F
:10264000401C6062208D401E81B22185608D401E3D
:10265000608520684269D243520712D4032903D10E
:10266000016821F48061016020680069616A087076
:10267000606A401C6062208D401E2085608D401E77
:102680006085208D002884D1202084F83D0084F8C6
:102690003E6084F83C600020CBE70220C9E70000E0
:1026A000020010000000FFFF040001002DE9F84FB8
:1026B0001F4690468A460446DDF82890FFF718FE2C
:1026C000054694F83D0020287FD119230122404976
:1026D0002046009501F0F2FC002876D194F83C00E9
:1026E000012872D0012084F83C0020680168C907E5
:1026F00003D1016841F0010101602068016821F403
:1027000000610160212084F83D00102084F83E0023
:1027100000262664C4F824806785608D20852D48B6
:10272000E0622B464A465146204601F0CFFB90B965
:10273000206841698069009036E02A464946204673
:1027400001F09AFD50B1206C042804D12068016882
:1027500041F4007101600120BDE8F88F606A2168D2
:1027600000780861606A401C6062618D491E618565
:10277000218D491E89B2218522685369DB435B079D
:102780000BD451B100781061606A401C6062608DAA
:10279000401E6085208D401E20852A4649462046E1
:1027A00001F060FC0028CED1208D0028C5D154F85E
:1027B0003D0B016841F400710160202004F81E09FE
:1027C000E67766770020C7E7FFE70220C4E700004E
:1027D000020010000000FFFF2DE9FF4F83B09A4672
:1027E000DDE9118793460446DDF84090FFF780FD50
:1027F000054694F83D00202870D119230122744920
:102800002046009501F05AFC0028F5D194F83C00D0
:10281000012863D0012084F83C0020680168C907C2
:1028200003D1016841F0010101602068016821F4D1
:1028300000610160222084F83D00402084F83E00C1
:1028400000262664C4F82490A4F82A80608D208590
:102850006048E062CDE9007553465A462046049927
:1028600001F082FB002879D1208DD0B1012821D040
:102870000228206824D0416980690090208D0328B7
:1028800066D801282BD0544902283B464FF000025D
:10289000009557D08846204601F010FC00285DD1F5
:1028A0003AE02068416981690091016841F4007152
:1028B00001607DE02068016821F480610160F0E73B
:1028C000016821F4806101602068016841F40061C1
:1028D0000160206841698069009069E075E02A46DE
:1028E0003946204601F090FC88BB54E0206801681E
:1028F00041F40071016020680069616A0870606AD3
:10290000401C6062218D491E2185618D491E6185B3
:1029100021680969017042E02068016821F4806142
:10292000016020680069616A0870606A401C60622A
:10293000208D401E2085608D401E60853B46002214
:1029400041460095204601F0B9FB00B9CEE705E00D
:102950002A463946204601F057FC18B1012007B03D
:10296000BDE8F08F20680069616A0870606A401CE9
:102970006062208D401E81B22185608D401E608581
:1029800020684269D243520712D4032903D1016857
:1029900021F48061016020680069616A0870606AE2
:1029A000401C6062208D401E2085608D401E608529
:1029B000208D00287FF462AF202084F83D0084F849
:1029C0003E6084F83C600020C9E70220C7E70000B1
:1029D000020010000000FFFF040001007047704774
:1029E0000248816802781144816070475C010020D0
:1029F0000B4810B5016841F400710160016841F4B1
:102A000080610160016841F480710160032000F081
:102A10006FF80F2000F006F800F024F8002010BD39
:102A2000003C024070B50D4D04464FF47A71287891
:102A3000B1FBF0F00A490968B1FBF0F001F071F95F
:102A400048B9102C07D200222146501E00F030F861
:102A500000206C6070BD012070BD00005C01002092
:102A6000680100200A4808B5016841F4804101600E
:102A7000006800F4804000900548001F016841F0A4
:102A800080510160006800F08050009008BD000097
:102A900044380240002809DB00F01F020121914068
:102AA0004009800000F1E020C0F8001170470000EC
:102AB000F0B40E4B1B680C46C3F30223C3F10705A9
:102AC000042D00D90425191D072901D2002300E097
:102AD000DB1E012606FA05F1491E214099409E4061
:102AE000761E16403143F0BC04F0BBBB0CED00E099
:102AF000064900F0070208684FF6FF03184040EA55
:102B00000220034A10430860704700000CED00E00B
:102B10000000FA0570470068416200207047F0B578
:102B20000368586A39B19C6A4FF4827600EB14440A
:102B300000204D1E0AE040EA024098620FE006EBDA
:102B40008007DF59401C04EB1744C0B2A842F6D3FB
:102B500044EA02404FF4807202EB81015850002099
:102B6000F0BDD0F8E00403F0F1BA01EBC10200EBD4
:102B70008202D0F8E004126A03F042BA01EBC1020B
:102B800000EB8202D0F8E004D2F8602203F094BA9D
:102B9000D0F8E00403F0DCBA0A0601F00F0101EB03
:102BA000C10100EB810101D5143101E001F515717E
:102BB000006804F0A3B970B504460B0601F00F00DD
:102BC00000EBC00104EB81014FF001024FF0000562
:102BD00002D54A75143103E081F8555201F515719B
:102BE000087094F89404012808D084F8942420688C
:102BF00003F09EFE84F89454002070BD022070BD46
:102C000070B5044601F00F002279904201D90120ED
:102C100070BD0B0601F00F0101EBC10104EB810156
:102C20004FF001024FF0000502D54A75143103E060
:102C300081F8555201F515718D70087094F894045F
:102C4000012808D084F89424206803F0E3FF84F876
:102C50009454002070BD022070BD01F00F0101EB03
:102C6000C10100EB8100D0F8680270472DE9F04106
:102C700004460F0601F00F0000EBC00104EB8101D8
:102C80004FF001064FF0000502D54E75143103E0F8
:102C900081F8555201F51571C2F30A0208708A6075
:102CA0000B714A7802B14883022B00D14D7194F820
:102CB0009404012809D084F89464206803F086FD08
:102CC000284684F89454BDE8F0810220FBE710B553
:102CD00001F00F0404EBC40100EB8101C1E998236A
:102CE0000023C1F8683281F8553281F85442837963
:102CF00001F51571012B00D1CA618279006803F0DA
:102D0000E1FF002010BD70B504460D4601F00F0034
:102D10002179884201D9012070BD29064FF00006B3
:102D20004FF0010206D500EBC00104EB81014A75AA
:102D3000143107E005EBC50104EB810181F8556210
:102D400001F515718A70087094F89404012807D071
:102D500084F89424206803F089FF280702D007E054
:102D6000022070BDA17904F29C42206803F026FF86
:102D700084F89464002070BD10B501F00F0404EBDA
:102D8000C40100EB8101C1E9082300238B62012308
:102D90004B7501F8144F8379012B00D1CA618279F8
:102DA000006803F08FFF002010BD00002DE9FC5FDC
:102DB00005680446284604F03DF900287DD12068C6
:102DC00004F064F9002878D0D5F80808C0F30D2085
:102DD000C4F8D404206804F059F9800704D52068A9
:102DE000416901F002014161206804F04FF9C10618
:102DF00004F29C40009034D52068816921F01001D4
:102E000081612F6A07F00F0000EBC00004EB800621
:102E1000C7F3434006F51576022802D0062811D0E4
:102E20001AE047F6F070074216D0C7F30A121746A9
:102E30002846F16804F02EF9F0683844F0607069B3
:102E4000384408E008222846009904F023F9706904
:102E5000C7F30A11084470612068816941F01001CC
:102E60008161206804F012F900034FF0080B4FF065
:102E7000000A4FF001097CD50026206804F0E5F82F
:102E8000074674E0F80770D0F1B2206804F0F6F855
:102E90008046C00707D005EB4611C1F8089B3146B4
:102EA000204601F0E7FE5FEA087024D505EB4611E5
:102EB000C1F808BB2068016C00E023E200EB46107B
:102EC0000191D0F8082BFB4B994205D9110403D589
:102ED0004FF40041C0F8081B204600F0DFFAF54926
:102EE0000198884207D9A079012804D120680121DE
:102EF000009A03F063FE5FEAC86004D505EB461153
:102F00001020C1F8080B5FEA88701DD568690006BB
:102F100005D5D5F8040840F48061C5F8041806EB1F
:102F2000C60004EB800090F8571200F515700129D7
:102F300005D180F803A0F1B2204600F0E6F905EBD8
:102F400046110220C1F8080B5FEA886004D505EB42
:102F500046102021C0F8081B5FEA884005D505EB24
:102F600046104FF40051C0F8081B7F08761C002F54
:102F700088D1206804F08AF840036ED5206804F0F8
:102F80005DF80746002666E0F80762D0F1B22068D7
:102F900004F062F88046C00723D006F00F01D5F890
:102FA000342809FA01F18A43C5F8342805EB4611A3
:102FB000C1F80899A07901280FD106EBC60004EBEF
:102FC0008000D0E907211144016236B9606A20B956
:102FD00020680121009A03F0F1FDF1B22046FFF7CD
:102FE000C4FD5FEA087003D505EB4611C1F808B9C6
:102FF0005FEAC86004D505EB46111020C1F8080946
:103000005FEA486004D505EB46104021C0F8081976
:103010005FEA887016D53146284603F0E0FF06EBDC
:10302000C60004EB8000C17D1430012905D180F871
:1030300003A0F1B2204600F067F905EB461102202B
:10304000C1F808095FEA086003D53146204601F05F
:1030500077FE7F08761C002F96D1206804F016F8C2
:10306000002811DAD5F8040820F00101C5F8041889
:1030700094F8CC0401282BD0204600F0F4F9206805
:10308000416901F000414161206803F0FFFF000544
:103090000BD5D5F80808C00702D0204600F026FA64
:1030A0002068416901F400614161206803F0EEFF8E
:1030B000C00467D5D5F8040820F00100C5F804085D
:1030C0001021206803F08BFF00214FF67F3220E0B3
:1030D00084F8CCA400212046FFF71CFDCFE700BFF9
:1030E00005EB4110C0F80829D0F8003923F400138B
:1030F000C0F80039C0F8082BD0F8003B23F40013C7
:10310000C0F8003BD0F8003B43F00063C0F8003B40
:10311000491C20798842E3D8D5F81C0840F00111F9
:10312000C5F81C18E07B002828460DD0D0F884088C
:1031300040F00B01C5F88418D5F8440840F00B01A5
:103140002846C5F844180DE0D0F8140842F22B01C7
:103150000843C5F81408D5F8100840F00B012846BC
:10316000C5F81018D0F8000820F4FE61C5F8001862
:10317000A1792068009A03F021FD2068416901F4DB
:1031800080514161206803F081FF800415D52068DB
:1031900003F05CFB206803F040FFE07100F044FAAC
:1031A0000146E279206803F0D3FF204600F04EF993
:1031B0002068416901F400514161206803F066FF15
:1031C000000707D5204600F052F92068416901F058
:1031D00008014161206803F059FF000616D5A8696F
:1031E00020F08001A96101260DE000BF06EBC600BA
:1031F00004EB800090F85702012803D1F1B2204679
:10320000FFF7CAFC761C2079B042EFD8206803F0A3
:103210003DFFC0021FD501264F4614E005EB4610C6
:10322000D0F8000906EBC60104EB81010A7E012AF1
:1032300008D1002806DACF75F0B240F080012046B0
:10324000FFF7AAFC761C2079B042E7D820684169D4
:1032500001F480114161206803F018FF800234D529
:1032600001204A4629E000BF05EB4011D1F8001BC0
:1032700000EBC00304EB830393F85862012E1BD1CB
:10328000002919DA94F8D464C1F3004106F001066C
:103290008E4211D183F85722A96941F08003AB61B6
:1032A0006969090608D4D5F8040840F40070C5F827
:1032B000040805E00A30544F401C21798142D3D8DC
:1032C0002068416901F400114161206803F0DEFECD
:1032D000400007D52046FFF744FC2068416901F013
:1032E00080414161206803F0D1FE40070AD5206883
:1032F0004568680702D52046FFF74AFC2068416808
:1033000029434160BDE8FC9F70477047F8B5040051
:1033100005D094F895042668002510B106E0012038
:10332000F8BD84F89454204600F056F8032084F841
:103330009504B6F1A04F00D1A571206803F038FCC8
:10334000207C8DF8000094E80F0003F08DFA02262F
:10335000B8BB0021206803F0BCFE90BB0020012711
:103360000DE000BF00EBC00104EB81014F75087553
:10337000C8850D76CD610D62401CC0B24D622179C9
:103380008142EFD8002011E000EBC00104EB810185
:1033900081F8555281F8540281F85852C1F85C52B4
:1033A000C1F86052401CC0B2C1F864522179814218
:1033B000EAD8207C8DF8000094E80F0003F03AFB77
:1033C00010B184F89564AAE7657484F89574206850
:1033D00003F022FB0020F8BD10B586B0044614218E
:1033E0006846FDF73CF82068B0F1A04F27D115489A
:1033F0000021026842F001020260006800F0010052
:1034000005904FF4C05000900220CDE90101032047
:1034100003900A20049069460B48FEF767FE0948AE
:10342000001D016841F08001016006481430016808
:1034300041F480410160006800F48040059006B0CE
:1034400010BD0000303802400000024010B50446B4
:10345000D0F8E004012102F039FFD4F8E004BDE81F
:10346000104002F0EDBED0F8E00402F018BFD0F832
:10347000E00402F01EBF10B5044690F89404012841
:103480000AD0012084F894046174206803F04FFE90
:10349000002084F8940410BD022010BDD0F8E02470
:1034A00000F29C41104602F01DBF10B504460068B2
:1034B00094F89414012909D0012184F89414C16866
:1034C000490609D5617B012902D005E0022010BD23
:1034D000816B41F480318163206803F05EFD2068D8
:1034E00003F08CFA002084F8940410BDD0F8E004B6
:1034F00002F03ABF2DE9F0470E46050065D0DFF82F
:103500001481D8F80000F7B200F00700B04207D2EB
:1035100088F80070D8F8000000F00700B04254D1DD
:1035200028683D4C810712D5400703D5206840F438
:10353000E05020602878000703D5206840F4604000
:1035400020602068A96820F0F000084320602878F7
:10355000C0072DD0304968680839012812D00228E8
:1035600013D0032811D00968890700292DDA2168B2
:1035700021F0030101432160FEF7BAFE814641F2CA
:10358000883A0EE009688903EFE709688901ECE7EA
:10359000FEF7AEFEA0EB0901514502D90320BDE8BC
:1035A000F0872068696800F00C00B0EB810FEFD164
:1035B000D8F80010404601F00701B14207D9077062
:1035C000006800F00700B04201D00120E7E728784A
:1035D000400705D52068E96820F4E05008432060E2
:1035E0002878000706D52068296920F4604040EA61
:1035F000C100206000F03EF82168084AC1F30311C1
:10360000515CC8400649086006480068FFF70AFA9E
:103610000020C4E7003C024008380240B4820008A1
:103620006801002060010020014800687047000028
:10363000680100200448054900680968044AC1F38C
:103640008221515CC8407047680100200838024060
:10365000C48200080448054900680968044AC1F3A7
:103660004231515CC8407047680100200838024070
:10367000C4820008154810B5006810F00C02144808
:1036800013D01449042A0FD0082A0ED10F4C241F3E
:103690002268236802F03F025B0207D52068C0F36E
:1036A0008810A0FB010106E0084610BD2168C1F3A7
:1036B0008811A1FB00010023FCF7F6FD2168C1F38E
:1036C0000141491C4900B0FBF1F010BD083802402F
:1036D0000024F40040787D012DE9F84F04006ED0FD
:1036E0002078DFF84C93C007A9F104054AD009F10E
:1036F00004000168C1F38101012908D00068C0F30A
:10370000810002280AD1D9F80000400206D52868B5
:10371000800337D560680028E1D033E06068B0F5F9
:10372000803F10D0B0F5A02F286810D020F4803052
:103730002860286820F4802028606068A8B1FEF71F
:10374000D7FD06460DE0286840F48030F4E740F4E9
:1037500080202860F7E700BFFEF7CAFD801B6428C1
:1037600073D828688003F7D50CE0FEF7C1FD064644
:1037700005E000BFFEF7BCFD801B6428F0D8286878
:103780008003F7D42078DFF8AC8280074FF0000A7E
:103790003ED5A748001D016811F00C0F08D0006845
:1037A000C0F3810002280BD1D9F80000400207D4F1
:1037B0002868800716D5E068012800D112E033E1BF
:1037C000E068B8B10120C8F80000FEF791FD064698
:1037D00005E000BFFEF78CFD801B0228C0D82868DA
:1037E0008007F7D52868216920F0F80040EAC10079
:1037F00028600DE0C8F800A0FEF77AFD064604E058
:10380000FEF776FD801B02281FD828688007F7D4B2
:103810002078000722D5864F87486169703771B1DB
:1038200001210160FEF764FD064604E0FEF760FD3D
:10383000801B022809D838688007F7D50EE0C0F849
:1038400000A0FEF755FD064605E082E0FEF750FDBC
:10385000801B02287DD838688007F7D4207840077D
:1038600068D5DFF8CCB100270BF13C0BDBF800008A
:10387000C0000BD4DBF8001041F08051CBF80010F1
:10388000DBF80000012700F0805000906B4E30689C
:10389000C00510D4306840F480703060FEF728FD19
:1038A000009005E0FEF724FD0099401A022850D848
:1038B0003068C005F6D55E4EA0686C3601280FD082
:1038C0000528306810D020F001003060306820F00A
:1038D00004003060A068B8B1FEF70AFD00900FE068
:1038E000306840F00100F4E740F004003060F7E792
:1038F000FEF7FEFC0099411A41F28830814266D8F9
:1039000030688007F4D50EE0FEF7F2FC009007E087
:10391000FEF7EEFC0099411A41F28830814256D8F8
:1039200030688007F4D42FB1DBF8001021F080510B
:10393000CBF80010A069C8B33D49091D0968C1F35F
:10394000810102294AD00228504607D0C8F86000F9
:1039500000E03CE0FEF7CCFC04463BE04746C8F8FC
:103960006000FEF7C5FC064605E000BFFEF7C0FCA0
:10397000801B02282BD828688001F7D4D4E90701DE
:103980000843A16A2E4A490802EB0141626A41EAF2
:103990008211084394F82C1040EA0161C9F8001024
:1039A00001203866FEF7A4FC044606E03EE000BFB6
:1039B000FEF79EFC001B022809D828688001F7D575
:1039C00034E000BFFEF794FC001B022802D903205C
:1039D000BDE8F88F28688001F4D427E00128F7D0EB
:1039E000D9F80000E26900F4800191421CD1226AFA
:1039F00000F03F01914217D147F6C071626A014061
:103A0000B1EB821F10D1A26A4FF0FF3300F44031B6
:103A100003EB5202B1EB024F06D194F82C1000F0E8
:103A20007060B0EB016F01D00120D1E70020CFE73B
:103A30000438024000004742800E474200700040B8
:103A40000000FFFF10B5040011D0022084F85100DF
:103A50002068016821F040010160204600F067F80D
:103A60000020606584F8510084F8500010BD0120EA
:103A700010BD70B5040009D0606A002540B1256111
:103A80006561A56294F8510040B10CE0012070BD61
:103A90006068B0F5827FF4D0E561F2E784F85050B9
:103AA000204600F045F8022084F8510020680168A3
:103AB00021F040010160A088218900F4827001F4A6
:103AC00004410843A18901F400610843217C01F00D
:103AD00002010843217D01F001010843218B01F41B
:103AE00000710843217F01F03801084394F8201049
:103AF00001F080010843218D01F400510843216841
:103B00000860A069042101EA104094F8241001F033
:103B100010010843216848602068C16921F40061F0
:103B2000C1616565012084F85100002070BD7047B7
:103B300070472DE9FF4F81B01D46934604464FF074
:103B400001090E9EFEF7D4FB074694F85100616808
:103B5000012806D0B1F5827F3CD1A168C9BB0428F9
:103B600038D10298002871D0BBF1000FFBD0002D96
:103B7000F9D094F8500001282CD04FF0010A84F8B5
:103B800050A094F85100042802D0052084F8510078
:103B90004FF00008C4F85480C4F838B0E587A58712
:103BA00002992163E586A586C4F84080C4F8448064
:103BB00020680168490603D4016841F040010160B2
:103BC000E068B0F5006F606808D0F0B3012D49D00F
:103BD00081E0FFE7022005B0BDE8F08F08B1012DBC
:103BE00039D1206B21680088C860206B801C20635D
:103BF000E08E401EE0862EE02068816889070FD5A0
:103C0000E18E69B1B9F1010F0AD1216B0988C16058
:103C1000206B801C2063E08E401EE0864FF0000980
:103C200020688168C9070CD0E18F51B1C068A16BD1
:103C30000880A06B801CA063E08F401EE0874FF0DF
:103C40000109FEF755FBC01B01E00BE067E0B04245
:103C500001D3701C50D1E08E0028CDD1E08F002818
:103C6000CAD13EE0206B216800780873206B401CAD
:103C70002063E08E401EE0862DE020688168890781
:103C80000FD5E18E69B1B9F1010F0AD1216B097825
:103C90000173206B401C2063E08E401EE0864FF0D5
:103CA000000920688168C9070CD0E18F51B1C06854
:103CB000A16B0870A06B401CA063E08F401EE087E2
:103CC0004FF00109FEF714FBC01BB04202D3701C79
:103CD00001D011E086B1E08E0028CED1E08F00281F
:103CE000CBD13A463146204601F03CFB50B1202072
:103CF000606584F8508012E084F851A084F8508008
:103D0000032068E7A06818B92068C168806800903F
:103D100084F851A084F85080606D0028F1D0012013
:103D200059E710B5401EB0F1807F01D3012010BDCE
:103D30004FF0E02460610F21601703F092FA002039
:103D4000A06107202061002010BD70B5040004D0E0
:103D500094F84100002510B106E0012070BD84F800
:103D60004050204600F023F8242084F841002068C9
:103D7000C16821F40051C160204601F051FF206864
:103D8000016921F4904101612068416921F02A0113
:103D900041612068C16841F40051C1606564202020
:103DA00084F8410084F842006563002070BD7047CC
:103DB000FEE701684A69D24352050FD46FF480626E
:103DC0004A61002140F8301F20224273817302694A
:103DD00042F0040202610173012070470020704725
:103DE0002DE9F84F0446C06A1E4693460D462168E9
:103DF0000A6842F480620A60082807D0012805D0CA
:103E000010F5803F02D0206B112804D12068016892
:103E100041F4807101604FF001195B460022494670
:103E20002046009600F04AF94FF4007840B120682F
:103E30000068C00501D5C4F840800320BDE8F88FB4
:103E40002069DFF884A0B0F5804F0FD006202168EC
:103E500000EAD51747F0F000086133465A460AF1E8
:103E60000601204600F072F958BB03E0E8B240F0CA
:103E700001001CE02168E8B2086133465A46514609
:103E8000204600F063F9E0B920684169816900913A
:103E9000016841F4807101605B460022494620467A
:103EA000009600F00BF90028C1D147F0F10021681D
:103EB000086133465A465146204600F047F900282B
:103EC000BCD00120BAE7000002000100F8B50446AA
:103ED000C06A1E460D461746082807D0012805D09F
:103EE00010F5803F02D0206B122804D120680168B1
:103EF00041F480710160134600224FF00111204609
:103F0000009600F0DBF840B120680068C00502D5DB
:103F10004FF4007020640320F8BD2069B0F5804F95
:103F20000ED00620216800EAD51040F0F0000861AC
:103F300033463A460B49204600F008F978B902E0CA
:103F400005F0FE0000E0E8B221680861054933464B
:103F50003A46891F204600F0F9F80028DCD00120FD
:103F6000F8BD0000080001002DE9F84F0446006884
:103F700089460B9D01689846174641F480610160AF
:103F80002068016841F48071016000954FF0011BC9
:103F90000022594620460A9B00F090F84FF4007A20
:103FA00040B120680068C00501D5C4F840A00320D6
:103FB000BDE8F88F216809F0FE0008612B4628490A
:103FC00020460A9A00F0C2F8F0BB20684169806977
:103FD00000902A4620460A9900F04EF940B1206C24
:103FE00004283AD12068016841F40071016034E08E
:103FF000FEB2B8F1010F09D02168380A08612A46DB
:1040000020460A9900F038F90028E8D120680661B6
:104010002A4620460A9900F02FF90028DFD12068AF
:10402000016841F4807101600095002259462046E4
:104030000A9B00F043F80028B3D1216809F0FF0083
:1040400040F00100086100E007E02B4604492046EB
:104050000A9A00F07BF80028AAD00120A8E7000007
:104060000200010070B516460D4604461EE02046CB
:10407000FFF79FFE08B1012070BD681C16D0FEF747
:1040800037F9801BA84200D885B920684069C04331
:1040900040070BD5002044F8300F20216173A07336
:1040A000216941F0200121612073E4E72068406923
:1040B000C0434007DBD4002070BD00002DE9F0476D
:1040C000984617460D460446C1F30746DDF8209092
:1040D0002AE000BFB8F1FF3F26D0FEF709F9A0EBB8
:1040E0000901414502D8B8F1000F1DD12068012E09
:1040F00016D0806925EA00000004000C12D00020D0
:10410000B84211D1002044F8300F20216173A07310
:10411000216941F02001216120730120BDE8F08771
:104120004069E7E70120EBE72068012E0AD08069AB
:1041300025EA00000004000C06D00020B842C9D0D7
:104140000020EBE74069F3E70120F7E72DE9F047AE
:10415000984616460D4604464FF000094FF0200AD7
:10416000C1F3074723E020684069C043400515D4E8
:104170002068016841F40071016021686FF480607B
:104180004861C4F8309084F83DA084F83E90216CDA
:1041900041F00401216484F83C9021E0701C06D0B9
:1041A000FEF7A6F8A0EB0800B04203D816B1012F25
:1041B0001FD021E02068012F15D0806925EA00007A
:1041C0000004000C18D000BF44F8309F84F80DA004
:1041D00084F80E90216941F02001216184F80C904F
:1041E0000120BDE8F087406925EA00000004000CCA
:1041F000EAD12068406901E02068806925EA000072
:104200000004000CAFD1ECE72DE9F0410025904609
:104210000E460446202728E04069C043C0060CD45F
:1042200054F8301B6FF01000486144F8105967775C
:10423000A577206A2062257714E0FEF759F8A0EBF5
:104240000800B04200D886B920684069C0434006E3
:104250000BD544F8305F6773A573206940F02000E8
:10426000206125730120BDE8F08120684169C943C0
:104270004906D1D40020F6E770B516460D4604462F
:104280001EE02046FFF795FD08B1012070BD681CB7
:1042900016D0FEF72DF8801BA84200D885B92068FB
:1042A0004069C04300060BD5002044F8300F2021A0
:1042B0006173A073216941F0200121612073E4E75B
:1042C00020684069C0430006DBD4002070BD0000B8
:1042D0000349497809B100F005B800F057B800006B
:1042E00028150020F0B527494FF400568E61CA14F6
:1042F00013048B618A618B618A614FF0005EC1F8A3
:1043000018E08B618A618B618A61D4008C611E4DDB
:10431000EF7E05EB470CBCF824501DB18B618A6120
:104320006D1EFBD1184D1C357D5D4FF0804706E0BA
:1043300008B18C6100E08F618B618A6140086D1E5D
:10434000F6D1BCF834506DB108B18C6100E08F61DA
:104350008B618A618C6101E08B618A616D1EFBD18A
:104360008E6104E08E6108B18C6100E08F618B6129
:104370008A618B618A61C1F818E08B618A618C6106
:10438000F0BD0000000C0240281500202DE9F04788
:10439000504A4FF400579761D3141C0494614E4E59
:1043A00071680D466D1EFDD193610D466D1EFDD1E8
:1043B00094610D466D1EFDD193610D466D1EFDD1BC
:1043C0004FF0005AB946C2F818A094610D466D1E10
:1043D000FDD193610D466D1EFDD194610D466D1E9C
:1043E000FDD193610D466D1EFDD14FF48045956161
:1043F00096F81BC006EB4C08B8F824704FB19461D6
:104400000E46761EFDD193610E46761EFDD17F1EAF
:10441000F5D1314E1C361CF806704FF0804C0DE083
:1044200008B1956101E0C2F818C094610E46761E8D
:10443000FDD193610E46761EFDD140087F1EEFD15F
:10444000B8F834601EB308B1956101E0C2F818C035
:1044500094610846401EFDD193610846401EFDD17F
:10446000956107E094610846401EFDD193610846BE
:10447000401EFDD1761EF5D1C2F818909461084611
:10448000401EFDD193610846401EFDD10EE0C2F8EA
:10449000189008B1956101E0C2F818C0946108460F
:1044A000401EFDD193610846401EFDD1946108462F
:1044B000401EFDD193610846401EFDD1C2F818A0F0
:1044C00094610846401EFDD19361491EFDD195615E
:1044D000BDE8F087000C0240281500202DE9F043CC
:1044E000334A4FF400569661D3141C04946131484A
:1044F00041680D466D1EFDD193610D466D1EFDD1C7
:104500004FF0005CB146C2F818C094610D466D1EB4
:10451000FDD193610D466D1EFDD194610D466D1E5A
:10452000FDD193610D466D1EFDD1C57E4DB19461E7
:104530000846401EFDD193610846401EFDD16D1E08
:10454000F5D11B4E00251F20103694610F467F1EAB
:10455000FDD137689361C7F380278846B8F1010819
:10456000FCD145EAC7756D08401EEED1C2F818901F
:1045700094610846401EFDD130689361C0F38026E7
:104580000846401EFDD145EAC67094610D466D1E79
:10459000FDD193610D466D1EFDD1C2F818C0946126
:1045A0000C46641EFDD19361491EFDD1BDE8F08328
:1045B000000C0240281500202DE9F04F10F03F05B7
:1045C00000D14025204EDFF884B044064FF400535C
:1045D0004FF4804E4FF4006A00D41B04B3612FE007
:1045E00011F801CB00244FF0080821E0BCF1000FC6
:1045F00001D0734601E04FF08043B3614FF0006398
:10460000B361DBF804301F467F1EFDD10E4F10371B
:104610003F68C6F818A0C7F380295B1EFDD1630868
:104620006D1E4FEA5C0C43EAC914B8F1010801D0D1
:10463000002DDBD124FA08F4030601D502F8014B62
:10464000002DCDD1BDE8F08F000C024028150020D0
:10465000034A52780AB100F005B800F0CFB8000064
:10466000281500202DE9F04F894661494FF4005686
:104670008E61CA1413048B618A6194048C618B610E
:104680008A618B618A61DFF86CE19EF81B401CB186
:104690008B618A61641EFBD145084FF0804C4FF45A
:1046A000804401D08C6101E0C1F818C08B61DFF853
:1046B000408108F11008D8F800508A61C5F38025C0
:1046C0006D00870801D08C6101E0C1F818C08B61D2
:1046D000D8F800708A61C7F380273D43C70801D02E
:1046E0008C6101E0C1F818C08B61D8F80070C34636
:1046F000C7F380278A6145EA870ABAF1010F01D022
:104700008E6157E0DFF8EC80870798F81A5098F828
:104710001B80A5EB08082CD500271F258B61DBF833
:1047200000C08A614FEA9C2C47EACC777F086D1E57
:10473000F4D1B8F1010815D08B61DBF80050C5F356
:10474000802500E08B618A61B8F10108FAD18E61A1
:104750008B618A6147EAC575B9F1000F2CD0C9F8A1
:10476000005029E08E618B61DBF80050C5F3802595
:10477000EFE7D9F800501F270DB18C6101E0C1F8B7
:1047800018C08B618A616D087F1EF5D1B8F10108F0
:104790000AD00DB18C6101E0C1F818C08B618A614B
:1047A000B8F10108FAD1ABE78E610DB18C6101E07F
:1047B000C1F818C08B618A618B618A614FF0005526
:1047C0008D618B618A618C61000606D50A4840685C
:1047D000A824B0FBF4F0CEF808009EF80C0001E02D
:1047E0008B618A61401EFBD25046BDE8F08F00000D
:1047F000000C024028150020001000E02DE9F34FC6
:10480000AD4A81B04FF400579761D3141C049461F2
:10481000AA4D69680E46761EFDD193610E46761E3E
:10482000FDD14FF00056BA46966194610E46761E51
:10483000FDD193610E46761EFDD194610E46761E23
:10484000FDD193610E46761EFDD1EF7E4FB194618E
:104850000E46761EFDD193610E46761EFDD17F1E5B
:10486000F5D147084FF080464FF4804802D0C2F897
:10487000188000E0966194610D466D1EFDD18E4F4B
:1048800010373D689361C5F380258C46BCF1010C5F
:10489000FCD16D005FEA900C02D0C2F8188000E0F5
:1048A0009661A44694610C46641EFDD13C68BB46EB
:1048B000C4F3802493610F467F1EFDD12543C408B5
:1048C00002D0C2F8188000E09661C2F818C00C4609
:1048D000641EFDD1DBF800409361C4F380240F46D1
:1048E0007F1EFDD145EA840EBEF1010F0AD0C2F849
:1048F00018A0C2F818C00C46641EFDD19361491E71
:10490000FDD1A8E06D4F8507BC7EFF7EA4EB0704B8
:10491000009452D500271F26C2F818C00D466D1E00
:10492000FDD1DBF800509361C5F380254FEA010902
:10493000B9F10109FCD147EAC5746708761EEBD1CD
:10494000009D6D1E24D0C2F818C00E46761EFDD103
:10495000DBF800601446C6F3802993610E46761E8C
:10496000FDD16D1E09D0C4F818C00E46761EFDD1CB
:10497000A3610E46761EFDD1F3E7C4F818A0C4F873
:1049800018C00D466D1EFDD1A361491EFDD10EE07C
:104990001546C2F818A0C2F818C00C46641EFDD116
:1049A000DBF80040AB61C4F38029491EFDD1029CB5
:1049B00047EAC9719CB321604DE0029C1F2724681F
:1049C00014B1C2F8188000E09661C2F818C00D4614
:1049D0006D1EFDD193610D466D1EFDD164087F1ED5
:1049E000EED1009D6D1E26D014B1C2F8188000E0F3
:1049F0009661C2F818C00C46641EFDD1144693613E
:104A00000E46761EFDD16D1E0AD0C4F818C00E46A3
:104A1000761EFDD1A3610E46761EFDD1F3E71AE0A6
:104A2000C4F818A0C4F818C00D466D1EFDD1A361CE
:104A3000491EFDD10FE01746C2F818A014B1C7F8FF
:104A4000188000E0BE61C7F818C00C46641EFDD196
:104A5000BB61491EFDD1C2F818C0184C61680D46F3
:104A60006D1EFDD193610D466D1EFDD14FF00055B9
:104A70009561C2F818C00D466D1EFDD193610D46BB
:104A80006D1EFDD1C2F81880000605D50C4840689F
:104A9000A825B0FBF5F0A060247B08E0C2F818C0A0
:104AA0000846401EFDD193610846401EFDD1641E9C
:104AB000F4D27046BDE8FE8F000C0240281500209D
:104AC000001000E02DE9F04F594A4FF4005696616E
:104AD000D3141C049461574F79680D466D1EFDD1A7
:104AE00093610D466D1EFDD14FF0005AB146C2F8DC
:104AF00018A094610D466D1EFDD193610D466D1E8B
:104B0000FDD194610D466D1EFDD193610D466D1E64
:104B1000FDD1FE7EB6F1000809D094610D466D1EF0
:104B2000FDD193610D466D1EFDD1761EF5D14FF07E
:104B3000804C4FF48045C2F818C094610E46761E32
:104B4000FDD193610E46761EFDD194610E46761E10
:104B5000FDD193610E46761EFDD194610E46761E00
:104B6000FDD19361BB460E46761EFDD11F2708B1CD
:104B7000956101E0C2F818C094610E46761EFDD121
:104B800093610E46761EFDD140087F1EEFD19BF843
:104B90001A60A6EB0806761E24D008B1956101E0E4
:104BA000C2F818C0104694610F467F1EFDD1836184
:104BB0000F467F1EFDD1761E08D084610F467F1EF2
:104BC000FDD183610F467F1EFDD1F4E71646C2F882
:104BD000189094610846401EFDD1B3610846401EFE
:104BE000FDD111E0C2F818900028104601D085616F
:104BF00001E0C0F818C0064684610846401EFDD199
:104C0000B3610846401EFDD194610846401EFDD1A7
:104C100093610846401EFDD1C2F818A09461084671
:104C2000401EFDD19361491EFDD19561BDE8F08F15
:104C3000000C024028150020094808B5016841F021
:104C400080010160016801F080010091016841F07C
:104C500001010160006800F00100009008BD000043
:104C600030380240FEE7FEE70148FEF79FB800003B
:104C70006C0100202DE9F04103680D4604461E6CCE
:104C800003EB4511D1F8080B94F806E04FF4004708
:104C90004FF0200C04F29C42BEF1010F09D0DFF866
:104CA00098E0764539D1020432D500BFC1F8087BBF
:104CB0003FE0224B5FEA007E04D59E4239D90004D2
:104CC000F4D436E05FEA806E02D5C1F808CB30E05C
:104CD00010F0280F2DD19E4201D90004E6D405EB37
:104CE000C50004EB8000D1F8101BD0F87432C1F37A
:104CF0001201591AC0F8681200F51570ADB90369B0
:104D00001BB1C2681144C1600FE0012120680AE0B4
:104D100080060AD5C1F808CB07E035B9D4F864029B
:104D200018B90021184601F049FFE9B22046FDF705
:104D300025FF0020BDE8F0810A31544F0A30544F5E
:104D40002DE9F84F0E4601EBC60100EB81048146C8
:104D50000568D4E909101434884202D90120BDE85D
:104D6000F88F081AA168814200D20846C01C870843
:104D700005EB46181BE000BFA0EB010AA0685045F8
:104D800000D282460AF10300870899F806000090D5
:104D90001FFA8AF3F2B22846E16802F04DFAE168A0
:104DA00001EB0A00E060616901EB0A006061D8F87C
:104DB000180980B2B84205D3D4E90401814201D276
:104DC0000028D9D1D4E90401884208D806F00F019F
:104DD00001208840D5F834188143C5F834180020E4
:104DE000BDE770472DE9F04387B014216846FBF713
:104DF00036FB52480024016841F00101016001685E
:104E000001F001010591016841F0020101600168B2
:104E100001F002010591016841F00401016001689F
:104E200001F004010591016841F008010160016889
:104E300001F008010591016841F01001016000686E
:104E40003F4D00F01000059000220221284603F09B
:104E50007FF800220121284603F07AF8394E00221B
:104E60008021304603F074F800222021304603F000
:104E70006FF8DFF8D480EF1400223946404603F083
:104E800067F800224021304603F062F8002229151D
:104E9000404603F05DF800220121404603F058F837
:104EA0000022A915284603F053F801223946284666
:104EB00003F04EF801225103284603F049F801227D
:104EC0009103284603F044F80122D70339462846C7
:104ED00003F03EF8DFF8749001221103484603F016
:104EE00037F801224021484603F032F801223946C2
:104EF000304603F02DF8164E00220421304603F010
:104F000027F800220221304603F022F84FF4B05077
:104F1000CDE90004694628460294FDF7E7F88420AD
:104F2000009069464046FDF7E1F880200090694610
:104F30004846FDF7DBF807B0BDE8F08330380240A3
:104F4000000C024000000240001002400004024039
:104F50000008024008B1012200E00022802101483F
:104F6000FDF7C1B90000024008B1012200E00022B3
:104F700040210148FDF7B7B90000024008B1012205
:104F800000E0002202210148FDF7ADB9000802400F
:104F900008B1012200E0002204210148FDF7A3B975
:104FA0000008024010B586B014216846FBF757FA96
:104FB00020480024016841F004010160006800F00D
:104FC000040005901B481030016841F40041016065
:104FD0000068694600F4004005904FF4E0500090EE
:104FE0000220CDE90104032003900620049012481A
:104FF000FDF77CF858211148FBF731FA0F481049AA
:1050000001604FF48271C0E90114C4604FF4007173
:105010000461C0E905410821C0E907140721446281
:10502000C0E90A41FEF725FD002003F049F806B06B
:1050300010BD00003038024000080240D0140020AB
:10504000003C004008B1012200E000224FF4006162
:105050000148FDF748B900000010024008B10122E4
:1050600000E0002220210148FDF73DB90000024088
:1050700010B586B014216846FBF7F1F91D480024ED
:10508000016841F001010160006800F00100059035
:1050900018481430016841F0100101600068694649
:1050A00000F0100005904FF4C060009002200190C5
:1050B0000120029003200390072004900E48FDF782
:1050C00015F80E480481C48084804480002208239F
:1050D00011464FF4E13002F0F7F8002206212520B6
:1050E000FDF7E6FC2520FDF7D5FC0020FFF7B6FF15
:1050F00006B010BD30380240000002400000002021
:1051000070B5034600200A4A0A4C09E01589655D1E
:105110001D54401C158980B26D1CC5F3080515810E
:10512000884203D21589D688B542EFD170BD000000
:105130000000002050080020024900F00100087023
:10514000FFF78CBF0000002002F0BEB8F0B50446A7
:1051500000200D4A0D4D0CE0538896885B1CC3F36C
:105160000803B34207D0265C5788401C80B2EE5536
:1051700053808842F0D3002804D00549CA6842F021
:105180008002CA60F0BD0000000000205006002030
:105190000010014010B5FCF79BFAFFF769FF0022F1
:1051A0000649074800F005FF0649054801F008F9DF
:1051B000BDE81040024801F087B90000300100202E
:1051C0001C0C00202000002070B51F4C2078012608
:1051D0000025C8B16078B8B925701C49A1F140001C
:1051E000FBF769FA6670194A83B28121A2F547700C
:1051F00001F0C7F800B16570144A4023403A01211C
:10520000A2F5377001F013F8A078002815D11048E6
:1052100090F89C02032810D10C4840218030FFF701
:105220006FFF03000AD0A670084A83218032084825
:1052300001F0A7F8002800D0A57070BDBDE870404F
:105240000020FFF79BBE00000C000020380F00205C
:105250001C0C002010B586B014216846FBF7FFF83F
:1052600020480024016841F002010160006800F05C
:10527000020005901B481430016841F48051016020
:105280000068694600F480500590382000900220A4
:10529000CDE9010403200390052004901248FCF797
:1052A00025FF58211148FBF7DAF810481049016032
:1052B0004FF48271C0E90114C4604FF400710461BD
:1052C000C0E905411021C0E9071407214462C0E983
:1052D0000A41FEF7CEFB02F00DFE0649012088616F
:1052E00006B010BD303802400004024078100020A3
:1052F0000030014000100240F8B5174E80213046C2
:10530000FCF7ECFF002825D0144C207808B902F0F7
:10531000F1FD4FF4007529461148FBF7A0F8002273
:1053200040213046FCF7DFFF0D4A0520A2F5007151
:1053300000902B46A1F15800FEF7FBFB18B90020A6
:10534000207002F039FE3046BDE8F84001224021CD
:10535000FCF7C9BFF8BD0000000402405001002066
:10536000D0120020F8B515460E460B4600920446B2
:105370000122022100F02CF8A0B91348134900685B
:10538000B0FBF1F04FF47A71484300906068B0F5DB
:10539000827F0DD13346002280212046009500F007
:1053A00017F870B1606D40F0200060650320F8BD13
:1053B000009830B1401E009020688068C04300060D
:1053C000F6D50020F8BD00006801002000366E010F
:1053D0002DE9F8431E46914688460446089DFCF791
:1053E00087FF401B351AFCF783FF074626480068F5
:1053F000C0F3CB3068430AE0701C09D0FCF778FF9B
:10540000C01BA8420FD275B10098B8B3401E0090DF
:105410002068816838EA010033D000214945EBD18A
:105420000020BDE8F8832068416821F0E001416078
:105430006068B0F5827F0BD1A068B0F5004F02D054
:10544000B0F5806F04D12068016821F0400101604F
:10545000A06AB0F5005F09D12068016821F400510D
:1054600001602068016841F400510160012084F866
:105470005100002084F850000320D2E7FFE7002508
:10548000C6E70121CAE700006801002070470178E3
:10549000407841EA002070472DE9F04310F03F03C7
:1054A00000D14023DFF89C800606254CD8F8040084
:1054B0004FF400594FF0006C4FF400651ED43BE0F0
:1054C0000021082715E000BFC4F818C0D8F8040070
:1054D0000646761EFDD11A4E10363668A561C6F313
:1054E0000036401EFDD148085B1E40EAC6117F1EF3
:1054F00001D0002BE8D1F94002F8011B002BDFD1CD
:10550000BDE8F08311F8016B082712E00EB14A469E
:1055100001E04FF00052A261C4F818C00246521ECA
:10552000FDD1A5610246521EFDD176085B1E7F1E8D
:1055300002D0002BEAD1E3E7002BE3D1E0E7000043
:10554000000C024028150020034A52780AB100F0EE
:1055500005B800F001B90000281500202DE9F04F32
:105560008E4679494FF400548C61CA1413048B6140
:105570008A61950408B18C6100E08D618B618A615C
:10558000460801D08C6100E08D618B618A618719CA
:10559000860801D08C6100E08D618B618A6137449F
:1055A000C60801D08C6100E08D618B618A61F74291
:1055B00001D08C6100E08D618B618A614FF00055F4
:1055C000A1468D618B618A618C618B618A61DFF894
:1055D0007CB1ED10CBF81850DFF874A19AF81840A0
:1055E000261E03D08B618A61641EFBD18B61564DF0
:1055F00010352C688A61C4F300348B612F688A618E
:10560000C7F3003744EA47048B612F688A61C7F308
:10561000003744EA8704012C0ED0022C71D0042CF0
:105620006FD0213603D08B618A61761EFBD14FF497
:105630008060CBF8180081E0870729D54FF0000C77
:10564000664620278B61D5F800808A61C8F3003850
:105650004FEA5C0C46444CEAC87C7F1EF2D18B6159
:105660002D688A6186EA1536F50700D00824BEF158
:10567000000F01D0CEF800C09AF818501DB18B6110
:105680008A616D1EFBD14FF48065CBF8185023E082
:105690001EB18B618A61761EFAE74FF48065CBF804
:1056A0001850DEF8005000264FF0200C4FF0005844
:1056B0004F460DB18F6101E0C1F818808B618A619E
:1056C0002E446D08BCF1010CF3D10EB18F6101E0E5
:1056D000C1F818808B618A61000606D51D484068B4
:1056E000A825B0FBF5F0CAF808009AF80C0028B31A
:1056F0004FF000558D618B618A61401EFBD11DE02A
:10570000FFE79AF8195035B1870704D521278B6137
:105710008A617F1EFBD11EB18B618A61761EFAE71A
:105720004FF48066CBF8186045B1800706D4F004CA
:10573000886121208B618A61401EFBD1C1F81890DD
:105740002046BDE8F08F0000000C0240001002402F
:1057500028150020001000E02DE9F34FDE4A4FF439
:10576000005500279561D3141C049461DFF86CC3C5
:10577000DCF804100E46761EFDD193610E46761EAF
:10578000FDD14FF0005608B1956100E0966194613B
:105790004FEA0108B8F10108FCD193614FEA010812
:1057A000B8F10108FCD107EB0008470801D095616A
:1057B00000E096619461E1464FEA010CBCF1010CF6
:1057C000FCD193614FEA010CBCF1010CFCD108EB58
:1057D000070C870801D0956100E0966194618846C6
:1057E000B8F10108FCD193614FEA0108B8F1010852
:1057F000FCD1BC44C70801D0956100E0966194617A
:105800004FEA0108B8F10108FCD193614FEA0108A1
:10581000B8F10108FCD11CEB070F01D0956100E045
:1058200096619461CC460F467F1EFDD193610F4671
:105830007F1EFDD1B646966194610E46761EFDD15F
:1058400093610E46761EFDD1AB46956194610D467F
:105850006D1EFDD193610D466D1EFDD1A04D4FF023
:105860008066AE6199F818703D1E09D094610E46AD
:10587000761EFDD193610E46761EFDD17F1EF5D1B9
:10588000274694610C46641EFDD1DFF84C8208F176
:105890001008D8F800409361C4F300340E46761E19
:1058A000FDD13E4697610F467F1EFDD1D8F800C05E
:1058B0004746CCF3003C93614FEA0108B8F1010878
:1058C000FCD144EA4C04B24696618C46BCF1010C12
:1058D000FCD1B9463F689361C7F300370E46761E88
:1058E000FDD144EA8704012C15D0022C78D0042C79
:1058F00076D021350AD0564696610846401EFDD125
:1059000093610846401EFDD16D1EF5D174494FF4D8
:1059100080608861DAE0860748D54FF0000C664663
:105920005FF02007C2F818A00D466D1EFDD1D9F812
:1059300000509361C5F300354FEA0108B8F1010842
:10594000FCD14FEA5C0C2E444CEAC57C7F1EE9D1A9
:10595000D0461546C2F818A00F467F1EFDD1D9F8D3
:105960000070AB61C7F30037DFF87091491EFDD1BD
:105970007E40F10700D00824019909B1C1F800C0A8
:1059800099F818706FB1D9F8041000BFC5F81880E5
:105990000E46761EFDD1AB610E46761EFDD17F1EF2
:1059A000F4D14F4D4FF48061A96139E055B15746AC
:1059B00097610E46761EFDD193610E46761EFDD18F
:1059C0006D1EF5D1464E4FF48065B561019D0027EF
:1059D0004FF0200C2D68D8461DB1C2F8188002E0A7
:1059E00039E0C2F818E0C2F818A00E46761EFDD1C4
:1059F00093610E46761EFDD12F446D08BCF1010C5B
:105A0000EAD117B1C2F8188001E0C2F818E01646D2
:105A1000C2F818A00D466D1EFDD1B361491EFDD11F
:105A2000000606D52F484068A821B0FBF1F02B49AD
:105A300088602A48057BEDB3C2F818E040685646F6
:105A400096610146491EFDD193610146491EFDD173
:105A50006D1EF5D13AE0214E96F81980B8F1000F8D
:105A60000FD086070DD521274FEA0A0CC2F818C0BF
:105A70000E46761EFDD193610E46761EFDD17F1E29
:105A8000F4D155B1574697610E46761EFDD193610C
:105A90000E46761EFDD16D1EF5D1114E4FF4806578
:105AA000B561B8F1000F11D080070FD4C2F818E02B
:105AB000212500E00AE0564696610846401EFDD1C9
:105AC00093610846401EFDD16D1EF5D1C2F818B095
:105AD0002046BDE8FC8F0000000C02402815002085
